:1000000000308A002928000083168614831286187F
:1000100007280830F700A101F7171C28F7131C2840
:10002000031086180314A10C77171C287713F70BFD
:1000300010282108F80028288430F71B2430F80005
:10004000F80B20282328F71B0E28771B16281028CA
:1000500008008316051083120514A00107309F00C5
:1000600083131F3083058C128B100B138B138B1B88
:100070003628831681130108C0398100831290014C
:100080000030F8009200003083169200073083128F
:100090009F008316050885000230F700F70B4E28F5
:1000A0005128000083121F080C1383169F018C1621
:1000B000C03083128B040B138B138B1B5C28F03026
:1000C00097050030831686008500861183128611FD
:1000D0008316861383128613831606138312061360
:1000E0008316861283128612831685118312851158
:1000F0008316051183120515042078086E3C031D34
:100100008528831606128312061604207808783C88
:10011000031D8E2883160612831206120420780807
:10012000823C031D972883168613831286170420AA
:1001300078088C3C031DA02883168613831286132F
:1001400004207808BE3C031DA928831606138312D9
:10015000061704207808C83C031DB228831606132E
:100160008312061304207808AA3C031DBB288316BB
:1001700086128312861604207808B43C031DC42816
:0C01800083168612831286127C2863000E
:02400E00183F59
:00000001FF
;PIC16F628
;CRC=CC85  CREATED="02-Tem-16 03:07"
