:100000005DEF08F068961200046ED8CF05F0E0CFDF
:1000100006F00001E9CF0CF0EACF07F0E1CF08F0DD
:10002000E2CF09F0D9CF0AF0DACF0BF0F3CF12F01C
:10003000F4CF13F0FACF14F000C00EF001C00FF0AF
:1000400002C010F003C011F0A0AA2AEF00F0A1BA7C
:10005000FEEF06F00EC000F00FC001F010C002F07D
:1000600011C003F00CC0E9FF07C0EAFF078E08C00B
:10007000E1FF09C0E2FF0AC0D9FF0BC0DAFF12C0DE
:10008000F3FF13C0F4FF14C0FAFF045006C0E0FFF2
:1000900005C0D8FF1000F76AA60FF66E000EF72213
:1000A0000900F55012000003FFFFFFFFFFFFFFFFF5
:1000B000FFFFFFFFFFFF07AE03D0F2CF0DF0F29E70
:1000C000F76AD80FF66E000EF7220900F55007AE5A
:1000D00002D00DBEF28E1200400040000000000071
:1000E0000000000000000000000000000000000010
:1000F0000000000000000000F76A080FF66E010E15
:10010000F7220900F55012000600FF0901A10119AC
:10011000002920150025FF75089540810219002946
:1001200020750895409102C0F76A380FF66E010EEF
:10013000F7220900F55012000000F76A4A0FF66E28
:10014000010EF7220900F55012002000F76A5C0F3B
:10015000F66E010EF7220900F5501200090229007F
:10016000010100803209040000020300000009219F
:10017000110100012220000705810340000A070544
:10018000010340000A00F76A960FF66E010EF7228F
:100190000900F55012000100F76AA80FF66E010E73
:1001A000F7220900F55012001200F76ABA0FF66E36
:1001B000010EF7220900F5501200120100020000A2
:1001C000004018181818000101020001F76ADC0F3E
:1001D000F66E010EF7220900F5501200040309041F
:1001E00008034A004D0020003A0320004A004D0059
:1001F00054002000340020004B0061006E006100BC
:100200006C0020005200F6006C00650020004B00DE
:100210006F006E00740072006F006C0020004400DC
:10022000310020006D92699468A402D06894FCD7D4
:100230000AEF07F0400E0401016F040E036F100E69
:10024000026F880E006F046B040E076F500E066F6E
:100250000001120070A002D0EDDF7090689A11EFDB
:1002600007F06A6A689216EF07F08D918CBF8D8156
:100270008C9F8C51100803E2000E016E20D08DA1DE
:1002800010D0036A8C51F2CF8EF0F29E04DF8EBF45
:10029000F28EFF0802E1000E01D0010E016E0FD0B8
:1002A0000ED0036A8C51F2CF8EF0F29EF4DE8EBF38
:1002B000F28EFF0802E1000E01D0010E016E120065
:1002C0008C518E03F3CF01F0F4CF00F08F03F35085
:1002D00000268D518E03F3500020026E1200036A37
:1002E0008B51700FE96E0F0E0320EA6EEF6A8BC020
:1002F0008CF0BBDF015222E08D6B8BC08CF08F6BDA
:10030000080E8E6FDDDF01C0E9FF040E0224EA6EE5
:10031000EF6A8D6B8BC08CF08F6B080E8E6FD0DF09
:1003200002C08DF001C08CF0040E8C27000E8D23CE
:100330008CC0E9FF040E8D25EA6EEF6A1200010EF3
:100340008A6F8A510F0805E38AC08BF0C8DF8A2BB9
:10035000F8D71200286A276A806B80530AE1036A83
:100360008051290FE96E000E0320EA6EEF6A802BA0
:10037000F4D71B6A010E1C6E1A6A12006A6A686A58
:100380009F0E6B6E3D0E696E6E6AD9DFE3DF160E4F
:10039000706E68A602D036DEFCD76D984BDF030E78
:1003A000226E1BEF07F0698468986D8220EF07F0DA
:1003B000689C25EF07F085C023F012002368120027
:1003C000836B2750281046E083513F0843E31D50BC
:1003D000FC0F2EE2040F35EF02F026C003F025508B
:1003E000F2CF85F0F29EB2DE85BFF28E846F20D010
:1003F00026C003F02550F2CF85F0F29E7DDE85BF4A
:10040000F28E846F15D026C003F02550F2CF85F010
:10041000F29EDCDE85BFF28E846F0AD026C003F028
:100420002550F2CF85F0F29EC0DE85BFF28E846F3C
:10043000252AD8B4262A2750D8B42806270683515F
:10044000832B500FE96E040EEA6ED8B0EA2A84C0FE
:10045000EFFFB7D72750281004E18351400801E08F
:100460001A6A83C085F0A7DF1200E824F76AF7361E
:10047000850FF66E040EF7220A00F550FA6E08009A
:10048000F550F96EDA03F00306041C04266A256AA7
:100490001D6A04011351010A000109E0030A0DE07D
:1004A000010A0FE0220A29E0030A4DE078D0286A09
:1004B000120E276E030E1D6E74D0286A290E276E49
:1004C00070D0020E1D6E036A040112511E0FE96EF8
:1004D000000E0320EA6E266AEFCF25F026C003F057
:1004E0002550F2CF83F0F29E000170DE83BFF28EC2
:1004F000036A276E03C028F054D0D8900401123547
:10050000036AF2CF83F0F29E000146DE0900F5CFC8
:1005100003F083BFF28E256E03C026F0253C02D087
:1005200026520FE026C003F02550F2CF83F0F29E52
:100530000DDE83BFF28E036A276E03C028F031D030
:1005400002D03CDF3DD0D89004011435036AF2CFCD
:1005500083F0F29E0001E8DD0900F5CF03F083BFD0
:10056000F28E256E03C026F0253C02D0265215E0FF
:10057000010E1D6ED89004011435036AF2CF83F08A
:10058000F29E0001DADD0900F5CF03F083BFF28EA1
:10059000276E03C028F005D002D010DF11D00EDF87
:1005A0000FD00401175308E1285203E12750165DCC
:1005B00003E2286A16C427F0010E1A6E000100DF5C
:1005C0001200825304E1040E226EB9DEE9D0050E5A
:1005D000226E040E856F900E846F010E836F83511F
:1005E0000F08D8A0DDD083C08BF079DE866B036A5C
:1005F0008351F2CF8AF0F29E4EDD8ABFF28EFF0861
:1006000065E0040E866FD8908335036AF2CF8AF0D6
:10061000F29E51DD0900F5CF03F08ABFF28E876F9D
:1006200003C088F08D6B83C08CF08F6B080E8E6FCB
:1006300047DE01C08AF0010E0124016E000E022087
:10064000036E01C0E9FF040E0324EA6E87C0EFFFCA
:100650008D6B83C08CF08F6B080E8E6F31DE01C006
:100660008AF0020E0124016E000E0220036E01C00A
:10067000E9FF040E0324EA6E85C0ECFFED5284C04E
:10068000EFFFD8908335036AF2CF8AF0F29E13DD34
:100690000900F5CF03F08ABFF28E8427035085232B
:1006A000880E896F88A101D0898188A301D08983B0
:1006B0008D6B83C08CF08F6B080E8E6F01DE01C0D6
:1006C000E9FF040E0224EA6E89C0EFFF036A83513A
:1006D000F2CF8AF0F29EDFDC8ABFF28EFF0845E09F
:1006E00086838D6B83C08CF08F6B080E8E6FE8DD78
:1006F00002C08BF001C08AF0040E8A27000E8B2303
:10070000020E8A25016E000E8B21036E01C0E9FFE7
:10071000040E0324EA6E85C0ECFFED5284C0EFFFA7
:10072000D8908335036AF2CF8AF0F29EC4DC0900C8
:10073000F5CF03F08ABFF28E8427035085238D6B9B
:1007400083C08CF08F6B080E8E6FBADD02C08BF009
:1007500001C08AF0040E8A27000E8B238AC0E9FFAD
:10076000040E8B25EA6E400EEF6E8651060802E1FC
:100770000E0E866F036A8351F2CF8AF0F29E8BDCF5
:100780008ABFF28E010801E08689036A8351700FE7
:10079000E96E0F0E0320EA6E86C0EFFF832B1FD792
:1007A0001FEF04F004011151000A00010DE0010ADD
:1007B00014E0020A1FE0060A29E0030A2EE00E0AEE
:1007C0002EE0010A32E040D01CC050F40401516B0D
:1007D000020E0001856FEFDD38D00401122D07D025
:1007E000010E1C160001856BE6DD03D0040100013B
:1007F000E5DD2BD00401122D06D01C820001856B93
:10080000DADD03D004010001D9DD1FD0020E1A6E1B
:1008100012C424F0856BCFDD18D038DE16D01BC093
:1008200050F4010E856FC7DD10D00401125101088C
:1008300009E312C41BF012C482F00001C2D6856B1A
:10084000BADD0401000101D0B9DD50EF05F01BC095
:1008500082F004011151000A000107E00A0A0DE0CC
:10086000010A2DE00D0A3DE03ED00401506B516BB2
:10087000020E0001856F9FDD37D082531EE0010E0E
:10088000825D036AF2CF83F0F29E7DDC83BFF28E3D
:10089000016E0401145DD8A002D000010ED0036ADD
:1008A0001451290FE96E000E0320EA6EEFCF50F4C9
:1008B000010E0001856F7FDD01D080DD15D08253F0
:1008C0000EE0036A04011451290FE96E000E0320A3
:1008D000EA6E12C4EFFF0001856B6DDD01D06EDDA5
:1008E00003D0D4DD01D06ADD50EF05F0839182BFE3
:1008F0008381829F83A117D08D6B82C08CF08F6B18
:10090000080E8E6FDDDC02C085F001C084F0040E9D
:100910008427000E852384C0E9FF040E8525EA6E36
:10092000880EEF6E0DD08D6B82C08CF08F6B080E31
:100930008E6FC6DC01C0E9FF040E0224EA6EEF6A86
:1009400016EF05F0839182BF8381829F83A117D028
:100950008D6B82C08CF08F6B080E8E6FB1DC02C085
:1009600085F001C084F0040E8427000E852384C026
:10097000E9FF040E8525EA6E840EEF6E0ED08D6BB6
:1009800082C08CF08F6B080E8E6F9ADC01C0E9FF7D
:10099000040E0224EA6E840EEF6E1CEF05F08391C4
:1009A00082BF8381829F83A117D08D6B82C08CF020
:1009B0008F6B080E8E6F84DC02C086F001C085F05C
:1009C000040E8527000E862385C0E9FF040E8625C8
:1009D000EA6EEFCF84F00ED08D6B82C08CF08F6BFF
:1009E000080E8E6F6DDC01C0E9FF040E0224EA6E72
:1009F000EFCF84F084AF02D084B502D0000E01D0D6
:100A0000010E016E26EF05F014C48CF02EDC0152AD
:100A100028E004011151010A000105E0020A09E081
:100A2000030A0DE01DD014C482F060D7856BC3DCCF
:100A300018D014C482F086D7856BBDDC12D00401B7
:100A4000506B516B14C482F00001A9D7015204E02D
:100A5000010E0401506F0001020E856FACDC01D065
:100A6000ADDC50EF05F0040111510001A7DC50EF9F
:100A700005F01A6A040110517F0B000A000107E01B
:100A8000010A07E0030A07E0230A07E008D08AD634
:100A900007D0DDD605D0B8D703D0E5D701D08EDC9E
:100AA000B4EF06F08D6B82C08CF08F6B080E8E6FEA
:100AB00007DC01C0E9FF040E0224EA6EEFCF84F0E8
:100AC0008351020806E184AD02D0836B02D0010E8F
:100AD000836F835103081AE1840E846F8D6B82C08B
:100AE0008CF08F6B080E8E6F60EC01F002C088F006
:100AF00001C087F0040E8727000E882387C0E9FF16
:100B0000040E8825EA6E840EEF6E07D0832D03D085
:100B1000C80E846F02D0880E846FD8908235036A25
:100B2000F2CF87F0F29E5BEC00F00900F5CF03F006
:100B300087BFF28E856F03C086F08D6B82C08CF00C
:100B40008F6B080E8E6F60EC01F001C087F0010E14
:100B50000124016E000E0220036E01C0E9FF040EA5
:100B60000324EA6E85C0EFFF86A101D0848186A3AD
:100B700001D084838D6B82C08CF08F6B080E8E6FDA
:100B800060EC01F001C0E9FF040E0224EA6E84C0AB
:100B9000EFFF1200036A8751700FE96E0F0E0320FA
:100BA000EA6EEF5219E08D6B87C08CF08F6B080EE8
:100BB0008E6F60EC01F002C089F001C088F0040E75
:100BC0008827000E892388C0E9FF040E8925EA6E74
:100BD000EFCF8AF08AAF02D0000E01D0010E016E75
:100BE000F5EF05F082C087F0D5D70152D8B47DD09B
:100BF0008D6B82C08CF08F6B080E8E6F60EC01F0F5
:100C000002C088F001C087F0040E8727000E8823F9
:100C1000010E8725016E000E8821036E01C0E9FFD9
:100C2000040E0324EA6E83C0EFFF855102081EE123
:100C30008D6B82C08CF08F6B080E8E6F60EC01F0B4
:100C400002C088F001C087F0040E8727000E8823B9
:100C500087C0E9FF040E8825EA6EEFCF86F086ADE7
:100C600002D0856B02D0010E856F18D08551040823
:100C700015E18D6B82C08CF08F6B080E8E6F60EC6F
:100C800001F001C0E9FF040E0224EA6EEFCF86F006
:100C900086AD03D0010E856F01D0856B852D03D005
:100CA000C80E866F02D0880E866F84A101D086811F
:100CB00084A301D086838D6B82C08CF08F6B080E6D
:100CC0008E6F60EC01F002C088F001C087F0040E66
:100CD0008727000E882387C0E9FF040E8825EA6E67
:100CE00086C0EFFF010E016E02D0000E016E1200F1
:100CF000825300E1120083C06EFF835303E0040EB1
:100D0000226E02D0020E226E8BEF06F01B6A1A6A68
:100D100024C083F0F0D798EF06F0825309E11A2C33
:100D200003D0E0EC01F004D01A500208D8B4EED79A
:100D300012002130806F803380331F0E80172152C4
:100D400041E1040100513C0B0001816F430E04019D
:100D500000170001815134081EE104010451800B89
:100D600001E0046B000185D66D98233C05D0826BB1
:100D7000030E836F97DE0ED0826B020E836F92DEBE
:100D80002350FE0807E0826B846B23C083F0040EBF
:100D9000856F28DF16D08151040813E1826BA8DF2C
:100DA000826B020E836F7EDE2350FE080AE0233C36
:100DB00001D007D0826B846B23C083F0010E856F56
:100DC00011DF1AD0215004080EE12368826BA5DFE1
:100DD000233C01D007D0826B846B23C083F0020ECA
:100DE000856F00DF09D021B404D080C082F080DF9D
:100DF00003D080C082F091DF2FEF07F0A19A22523A
:100E0000D8B433D06852D8B430D068A403D069B411
:100E100012EF01F06DB229D068AA03D069BA2AEFA7
:100E200001F068A203D069B231EF01F068A003D0ED
:100E300069B0BEEF01F068A803D069B8D3EF01F044
:100E400068AC03D069BCD8EF01F07F6B68A608D00E
:100E500069A606D06CCF21F002EC00F06AD701D071
:100E600004D07F517F2B0308F1E22AEF00F0000E3F
:100E7000926E936E946E92EF08F06D6A696A080E36
:100E80006F6E94503009946E226A166AF2BE168E06
:100E9000F29EAAEC01F016BEF28E50EF07F0EDD7ED
:100EA00075EF07F0166AF2BE168EF29EAAEC01F0FC
:100EB00016BEF28E6D6A140E6F6E696A6D86010E33
:100EC000226E66EF07F06DB601D0ECD7222C0BD066
:100ED0006DBA09D0686A696AA08AC00EF212110E52
:100EE000696E020E226E1200DAD7EDDF2250020880
:100EF000FCE197EF08F01B5202E10400FCD799EFE8
:100F000008F01B50016E9AEF08F0036A6B51700FE6
:100F1000E96E0F0E0320EA6EEF521BE0166AF2BE76
:100F2000168EF29E8D6B6BC08CF08F6B080E8E6FE1
:100F300060EC01F016BEF28E02C06DF001C06CF0E4
:100F400001C0E9FF040E0224EA6EEFCF6EF06EAF2F
:100F500002D0000E01D0010E016E9FEF08F0166A5C
:100F6000F2BE168EF29E8D6B70C08CF08F6B080EE9
:100F70008E6F60EC01F016BEF28E01C07AF0020EA8
:100F80000124016E000E0220036E01C0E9FF040E71
:100F90000324EA6EECCF76F0ED52EFCF75F0166ACF
:100FA000F2BE168EF29E8D6B70C08CF08F6B080EA9
:100FB0008E6F60EC01F016BEF28E01C07AF0010E69
:100FC0000124016E000E0220036E01C0E9FF040E31
:100FD0000324EA6E796BEFCF78F0166AF2BE168EB4
:100FE000F29E8D6B70C08CF08F6B080E8E6F60EC74
:100FF00001F016BEF28E01C0E9FF040E0224EA6E73
:10100000EFCF77F077A101D0798177A301D07983F1
:101010007951745D08E303E17351785D04E279C0AE
:1010200074F078C073F072C0EAFF71C0E9FF76C057
:10103000E2FF75C0E1FF74C002F073C001F001521D
:1010400002E0022A02D0025206E0E6CFEEFF012EB5
:10105000FCD7022EFAD773C001F074C002F03CEF47
:1010600008F06BC070F06DC072F06CC071F06FC0B2
:1010700074F06EC073F073D702C06FF001C06EF0F1
:10108000166AF2BE168EF29E6BC082F0020E836F5D
:1010900009DD16BEF28E6EC001F06FC002F0AAEF3D
:1010A00008F09EA8FED7AD6E1200550EFADF000EB6
:1010B000F8DFFF0EF6DFB1EF08F0F86AD09E078E7A
:1010C000176AB886870EAF6E130EB06EA60EAC6EA2
:1010D000900EAB6EC150C00B0F09C16E070EB46EFF
:1010E000186A196A1E6A040E1F6E0C0E206E8A9012
:1010F000800ED56EB16A070EB46E9250926E270EB6
:10110000006E002EFED700D0B450A19CB56A780EB8
:101110000509CA6EF90ECB6E8B940C0EBD6E8B92C8
:10112000BA6EA5D6C00EF212B50ECD6EDDD6CBDEF0
:10113000E2D6E7D601521AE0010E6B6FE6D60152F5
:1011400014E0010E6B6F6D6B2A0E6C6F6F6B400EAF
:101150006E6F87D72A506E0802E18A8001D08A908C
:10116000A4D72A509EDF2A509CDFE3D7E2D70300A2
:020000040030CA
:0E00000024CE3E1E000581000FC00FE00F4011
:00000001FF
;PIC18F2550
;CRC=9D25  CREATED="13-Tem-16 16:13"
