:100000002CEF09F068961200046ED8CF05F0E0CF0F
:1000100006F00001E9CF0CF0EACF07F0E1CF08F0DD
:10002000E2CF09F0D9CF0AF0DACF0BF0F3CF12F01C
:10003000F4CF13F0FACF14F000C00EF001C00FF0AF
:1000400002C010F003C011F0A0AA2AEF00F0A1BA7C
:10005000B1EF07F00EC000F00FC001F010C002F0C9
:1000600011C003F00CC0E9FF07C0EAFF078E08C00B
:10007000E1FF09C0E2FF0AC0D9FF0BC0DAFF12C0DE
:10008000F3FF13C0F4FF14C0FAFF045006C0E0FFF2
:1000900005C0D8FF1000F76AA60FF66E000EF72213
:1000A0000900F55012000003FFFFFFFFFFFFFFFFF5
:1000B000FFFFFFFFFFFF07AE03D0F2CF0DF0F29E70
:1000C000F76AD80FF66E000EF7220900F55007AE5A
:1000D00002D00DBEF28E1200400040000000000071
:1000E0000000000000000000000000000000000010
:1000F0000000000000000000F76A080FF66E010E15
:10010000F7220900F55012000600FF0901A10119AC
:10011000002920150025FF75089540810219002946
:1001200020750895409102C0F76A380FF66E010EEF
:10013000F7220900F55012000000F76A4A0FF66E28
:10014000010EF7220900F55012002000F76A5C0F3B
:10015000F66E010EF7220900F5501200090229007F
:10016000010100803209040000020300000009219F
:10017000110100012220000705810340000A070544
:10018000010340000A00F76A960FF66E010EF7228F
:100190000900F55012000100F76AA80FF66E010E73
:1001A000F7220900F55012001200F76ABA0FF66E36
:1001B000010EF7220900F5501200120100020000A2
:1001C000004011111111000101020001F76ADC0F5A
:1001D000F66E010EF7220900F5501200040309041F
:1001E00008034D00430054003A0320004600650018
:1001F0007200680061007400200059004F004C003C
:1002000020007700770077002E0061007200650003
:100210006300740072006F006E002E0063006F00B8
:100220006D0020006D92699468A402D06894FCD798
:10023000BDEF07F0400E0401016F040E036F100EB6
:10024000026F880E006F046B040E076F500E066F6E
:100250000001120070A002D0EDDF7090689AC4EF28
:1002600007F06A6A6892C9EF07F001014D914CBF2F
:100270004D814C9F4C51100803E2000E016E24D0BA
:100280004DA112D0036A4C51F2CF4EF1F29E000103
:1002900002DF01014EBFF28EFF0802E1000E01D025
:1002A000010E016E11D010D0036A4C51F2CF4EF105
:1002B000F29E0001F0DE01014EBFF28EFF0802E166
:1002C000000E01D0010E016E0001120001014C511F
:1002D0004E03F3CF01F0F4CF00F04F03F3500026AC
:1002E0004D514E03F3500020026E00011200036ACC
:1002F00001014B51700FE96E0F0E0320EA6EEF6A99
:100300004BC14CF10001B1DF015228E001014D6BFE
:100310004BC14CF14F6B080E4E6F0001D7DF01014E
:1003200001C0E9FF040E0224EA6EEF6A4D6B4BC177
:100330004CF14F6B080E4E6F0001C8DF02C04DF14B
:1003400001C04CF1040E01014C27000E4D234CC19D
:10035000E9FF040E4D25EA6EEF6A00011200010E5E
:1003600001014A6F4A510F0807E34AC14BF10001EE
:10037000BEDF01014A2BF6D700011200286A276A66
:100380000101406B40530AE1036A4051290FE96EB5
:10039000000E0320EA6EEF6A402BF4D71B6A010EB1
:1003A0001C6E1A6A000112006A6A686A9F0E6B6E00
:1003B0003D0E696E6E6AD3DFE1DF160E706E68A6C1
:1003C00002D020DEFCD76D9835DF030E226ECEEF13
:1003D00007F0698468986D82D3EF07F0689CD8EFC6
:1003E00007F045C123F01200236812000101436B9E
:1003F000275028104DE043513F084AE31D50FC0FA1
:1004000035E2040F000154EF02F026C003F025503E
:10041000F2CF45F1F29E9ADE010145BFF28E446FA4
:1004200025D026C003F02550F2CF45F1F29E64DEC0
:10043000010145BFF28E446F19D026C003F025504C
:10044000F2CF45F1F29EC2DE010145BFF28E446F4C
:100450000DD026C003F02550F2CF45F1F29EA5DE67
:10046000010145BFF28E446F01D00101252AD8B4A5
:10047000262A2750D8B4280627064351432B500F6D
:10048000E96E040EEA6ED8B0EA2A44C1EFFFB0D795
:100490002750281004E14351400801E01A6A43C183
:1004A00045F100019EDF1200E824F76AF736C30F1A
:1004B000F66E040EF7220A00F550FA6E0800F550A9
:1004C000F96E0A0422043A045204266A256A1D6A57
:1004D00004011351010A000109E0030A0DE0010AB9
:1004E0000FE0220A2BE0030A55E085D0286A120E9D
:1004F000276E030E1D6E81D0286A290E276E7DD0CF
:10050000020E1D6E036A040112511E0FE96E000EE9
:100510000320EA6E266AEFCF25F026C003F02550AF
:10052000F2CF43F1F29E000151DE010143BFF28E92
:10053000036A276E03C028F000015FD0D890040141
:100540001235036AF2CF43F1F29E000125DE090065
:10055000F5CF03F0010143BFF28E256E03C026F0F4
:10056000253C02D0265213E026C003F02550F2CFDE
:1005700043F1F29E0001EADD010143BFF28E036AFE
:10058000276E03C028F0000138D004D0010100011B
:100590002BDF42D0D89004011435036AF2CF43F127
:1005A000F29E0001C1DD0900F5CF03F0010143BF58
:1005B000F28E256E03C026F0253C02D0265218E0AC
:1005C000010E1D6ED89004011435036AF2CF43F179
:1005D000F29E0001B2DD0900F5CF03F0010143BF37
:1005E000F28E276E03C028F0000107D004D001016D
:1005F0000001FADE11D0F8DE0FD00401175308E134
:10060000285203E12750165D03E2286A16C427F03A
:10061000010E1A6E0001EADE12000101425306E1EA
:10062000040E226E00019BDE02D10101050E226E36
:10063000040E456F900E446F010E436F43510F0837
:10064000D8A0F5D043C14BF1000151DE0101466B4A
:10065000036A4351F2CF4AF1F29E00011CDD010111
:100660004ABFF28EFF086FE0040E466FD890433504
:10067000036AF2CF4AF1F29E00011DDD0900F5CFB9
:1006800003F001014ABFF28E476F03C048F14D6B82
:1006900043C14CF14F6B080E4E6F000117DE01C0D5
:1006A0004AF1010E01010124016E000E0220036EC9
:1006B00001C0E9FF040E0324EA6E47C1EFFF4D6B52
:1006C00043C14CF14F6B080E4E6F0001FFDD01C0BE
:1006D0004AF1020E01010124016E000E0220036E98
:1006E00001C0E9FF040E0324EA6E45C1ECFFED52A0
:1006F00044C1EFFFD8904335036AF2CF4AF1F29E2E
:100700000001D9DC0900F5CF03F001014ABFF28EE8
:10071000442703504523880E496F48A101D04981E1
:1007200048A301D049834D6B43C14CF14F6B080E78
:100730004E6F0001CBDD010101C0E9FF040E022470
:10074000EA6E49C1EFFF036A4351F2CF4AF1F29ECC
:100750000001A1DC01014ABFF28EFF084BE0468395
:100760004D6B43C14CF14F6B080E4E6F0001AEDD77
:1007700002C04BF101C04AF1040E01014A27000EEC
:100780004B23020E4A25016E000E4B21036E01C061
:10079000E9FF040E0324EA6E45C1ECFFED5244C1AB
:1007A000EFFFD8904335036AF2CF4AF1F29E000181
:1007B00082DC0900F5CF03F001014ABFF28E442725
:1007C000035045234D6B43C14CF14F6B080E4E6FE8
:1007D00000017CDD02C04BF101C04AF1040E0101B1
:1007E0004A27000E4B234AC1E9FF040E4B25EA6E4F
:1007F000400EEF6E4651060802E10E0E466F036A88
:100800004351F2CF4AF1F29E000145DC01014ABF9B
:10081000F28E010801E04689036A4351700FE96EC8
:100820000F0E0320EA6E46C1EFFF432B07D70001EE
:100830006EEF04F004011151000A00010DE0010AFD
:1008400015E0020A21E0060A2CE0030A33E00E0A52
:1008500033E0010A39E049D01CC050F40401516B67
:10086000020E0101456F0001BCDD40D00401122DD4
:1008700008D0010E1C160101456B0001B2DD03D04A
:1008800004010001B1DD32D00401122D07D01C8219
:100890000101456B0001A5DD03D004010001A4DDC9
:1008A00025D0020E1A6E12C424F00101456B00011E
:1008B00098DD1CD00ADE1AD01BC050F4010E0101D5
:1008C000456F00018EDD12D00401125101080BE3C7
:1008D00012C41BF012C442F100019FD60101456B06
:1008E00000017FDD0401000101D07EDDC5EF05F0D0
:1008F0001BC042F104011151000A000107E00A0A7D
:100900000EE0010A34E00D0A48E049D00401506BC2
:10091000516B020E0101456F000163DD41D0010101
:10092000425322E0010E425D036AF2CF43F1F29E90
:10093000000129DC010143BFF28E016E0401145D48
:10094000D8A002D0010110D0036A1451290FE96E1A
:10095000000E0320EA6EEFCF50F4010E0101456F47
:1009600000013FDD03D0010100013EDD19D001018E
:10097000425310E0036A04011451290FE96E000E7E
:100980000320EA6E12C4EFFF0101456B000129DD6F
:1009900003D00101000128DD03D097DD01D024DD63
:1009A000C5EF05F00101439142BF4381429F43A13E
:1009B00019D04D6B42C14CF14F6B080E4E6F0001C8
:1009C00085DC02C045F101C044F1040E0101442759
:1009D000000E452344C1E9FF040E4525EA6E880E4A
:1009E000EF6E0FD04D6B42C14CF14F6B080E4E6F46
:1009F00000016CDC010101C0E9FF040E0224EA6E73
:100A0000EF6A000185EF05F00101439142BF438188
:100A1000429F43A119D04D6B42C14CF14F6B080E60
:100A20004E6F000153DC02C045F101C044F1040ED9
:100A300001014427000E452344C1E9FF040E45256A
:100A4000EA6E840EEF6E10D04D6B42C14CF14F6BCD
:100A5000080E4E6F00013ADC010101C0E9FF040EEF
:100A60000224EA6E840EEF6E00018DEF05F00101A5
:100A7000439142BF4381429F43A119D04D6B42C174
:100A80004CF14F6B080E4E6F000120DC02C046F1A6
:100A900001C045F1040E01014527000E462345C162
:100AA000E9FF040E4625EA6EEFCF44F110D04D6BFE
:100AB00042C14CF14F6B080E4E6F000107DC010183
:100AC00001C0E9FF040E0224EA6EEFCF44F144AF07
:100AD00002D044B502D0000E01D0010E016E00011B
:100AE00099EF05F014C44CF135EC01F001522EE001
:100AF00004011151010A000105E0020A0BE0030A9A
:100B000011E023D014C442F14DD70101456B00011F
:100B100068DC1CD014C442F177D70101456B000199
:100B200060DC14D00401506B516B14C442F100011D
:100B30009ED7015204E0010E0401506F0001020E25
:100B40000101456F00014DDC01D04EDCC5EF05F021
:100B500004011151000148DCC5EF05F01A6A0401D7
:100B600010517F0B000A000107E0010A07E0030AA9
:100B700007E0230A07E008D05DD607D0B9D605D034
:100B8000B1D703D0E5D701D02FDC51EF07F0010139
:100B90004D6B42C14CF14F6B080E4E6F000166EC7D
:100BA00001F0010101C0E9FF040E0224EA6EEFCF5B
:100BB00044F14351020806E144AD02D0436B02D038
:100BC000010E436F435103081CE1840E446F4D6BCB
:100BD00042C14CF14F6B080E4E6F000166EC01F004
:100BE00002C048F101C047F1040E01014727000E81
:100BF000482347C1E9FF040E4825EA6E840EEF6ED4
:100C000007D0432D03D0C80E446F02D0880E446F26
:100C1000D8904235036AF2CF47F1F29E00015BECB7
:100C200000F00900F5CF03F0010147BFF28E456FD8
:100C300003C046F14D6B42C14CF14F6B080E4E6F35
:100C4000000166EC01F001C047F1010E0101012431
:100C5000016E000E0220036E01C0E9FF040E0324A2
:100C6000EA6E45C1EFFF46A101D0448146A301D001
:100C700044834D6B42C14CF14F6B080E4E6F000127
:100C800066EC01F0010101C0E9FF040E0224EA6EE6
:100C900044C1EFFF00011200036A01014751700FC8
:100CA000E96E0F0E0320EA6EEF521BE04D6B47C159
:100CB0004CF14F6B080E4E6F000166EC01F002C064
:100CC00049F101C048F1040E01014827000E4923F3
:100CD00048C1E9FF040E4925EA6EEFCF4AF14AAF59
:100CE00002D0000E01D0010E016E00017BEF06F074
:100CF00042C147F1D1D70152D8B487D001014D6B21
:100D000042C14CF14F6B080E4E6F000166EC01F0D2
:100D100002C048F101C047F1040E01014727000E4F
:100D20004823010E4725016E000E4821036E01C0C5
:100D3000E9FF040E0324EA6E43C1EFFF45510208A8
:100D400020E14D6B42C14CF14F6B080E4E6F00011C
:100D500066EC01F002C048F101C047F1040E010148
:100D60004727000E482347C1E9FF040E4825EA6ED5
:100D7000EFCF46F146AD02D0456B02D0010E456F74
:100D80001AD04551040817E14D6B42C14CF14F6B2D
:100D9000080E4E6F000166EC01F0010101C0E9FF91
:100DA000040E0224EA6EEFCF46F146AD03D0010EE9
:100DB000456F01D0456B452D03D0C80E466F02D05C
:100DC000880E466F44A101D0468144A301D04683DA
:100DD0004D6B42C14CF14F6B080E4E6F000166EC3B
:100DE00001F002C048F101C047F1040E010147279C
:100DF000000E482347C1E9FF040E4825EA6E46C1AC
:100E0000EFFF010E016E04D00001000E016E010122
:100E1000000112000101425300E10001120043C130
:100E20006EFF0101435303E0040E226E02D0020E56
:100E3000226E000121EF07F01B6A1A6A24C043F1F9
:100E4000EED732EF07F0010142530DE11A2C05D025
:100E50000001F6EC01F006D001011A50020803E18E
:100E60000001EAD701010001120021300101406FA9
:100E7000403340331F0E401721524EE10401005110
:100E80003C0B0101416F430E040100170101415168
:100E9000340825E104010451800B01E0046B0001DA
:100EA0005DD66D98233C07D00101426B030E436F62
:100EB00000016DDE12D00101426B020E436F000192
:100EC00066DE2350FE0809E00101426B446B23C03B
:100ED00043F1040E456F00010BDF1CD001014151AD
:100EE000040819E1426B000195DF0101426B020E1B
:100EF000436F00014CDE2350FE080CE0233C01D080
:100F000009D00101426B446B23C043F1010E456FD0
:100F10000001EEDE010122D02150040812E1236815
:100F2000426B000190DF233C01D009D00101426BEC
:100F3000446B23C043F1020E456F0001D9DE0DD092
:100F4000010121B406D040C142F1000163DF05D0A8
:100F5000010140C142F1000176DF01010001E4EF2F
:100F600007F0A19A2252D8B439D06852D8B436D0FA
:100F700068A403D069B412EF01F06DB22FD068AA53
:100F800003D069BA2AEF01F068A203D069B231EF49
:100F900001F068A003D069B0D4EF01F068A803D0D5
:100FA00069B8E9EF01F068AC03D069BCEEEF01F07D
:100FB00001013F6B68A60AD069A608D06CCF21F06A
:100FC000000102EC00F051D703D0010106D000016E
:100FD00001013F513F2B0308EDE200012AEF00F031
:100FE000000E926E936E946E020E956E000E966ECB
:100FF0006FEF09F06D6A696A080E6F6E94503009E0
:101000000101946E226A166AF2BE168EF29E0001EB
:10101000BEEC01F016BEF28E0FEF08F0EBD734EF06
:1010200008F0166AF2BE168EF29EBEEC01F016BEF5
:10103000F28E6D6A140E6F6E696A6D86010E226EF5
:1010400025EF08F06DB601D0ECD7222C0BD06DBA8D
:1010500009D0686A696AA08AC00EF212110E696E20
:10106000020E226E1200DAD7EDDF22500208FCE1F8
:1010700074EF09F01B5202E10400FCD776EF09F08F
:101080001B50016E77EF09F0036A01012B51700FBD
:10109000E96E0F0E0320EA6EEF521DE0166AF2BEF3
:1010A000168EF29E4D6B2BC14CF14F6B080E4E6F9E
:1010B000000166EC01F016BEF28E02C02DF101C0F7
:1010C0002CF1010101C0E9FF040E0224EA6EEFCF0A
:1010D0002EF12EAF02D0000E01D0010E016E0001E4
:1010E0007EEF09F0166AF2BE168EF29E01014D6B7C
:1010F00030C14CF14F6B080E4E6F000166EC01F0F1
:1011000016BEF28E01C03AF1020E01010124016EF9
:10111000000E0220036E01C0E9FF040E0324EA6EF4
:10112000ECCF36F1ED52EFCF35F1166AF2BE168EE6
:10113000F29E4D6B30C14CF14F6B080E4E6F0001AB
:1011400066EC01F016BEF28E01C03AF1010E01010B
:101150000124016E000E0220036E01C0E9FF040E9F
:101160000324EA6E396BEFCF38F1166AF2BE168EA1
:10117000F29E4D6B30C14CF14F6B080E4E6F00016B
:1011800066EC01F016BEF28E010101C0E9FF040E0B
:101190000224EA6EEFCF37F137A101D0398137A3AE
:1011A00001D039833951345D08E303E13351385DAF
:1011B00004E239C134F138C133F132C1EAFF31C13F
:1011C000E9FF36C1E2FF35C1E1FF34C102F033C1AE
:1011D00001F0015202E0022A02D0025206E0E6CFFC
:1011E000EEFF012EFCD7022EFAD733C101F034C135
:1011F00002F0000107EF09F02BC130F12DC132F1EF
:101200002CC131F12FC134F12EC133F16BD702C0A3
:101210002FF101C02EF1166AF2BE168EF29E2BC17E
:1012200042F1020E0101436F0001B1DC16BEF28EE5
:1012300001012EC101F02FC102F000018BEF09F076
:101240009EA8FED7AD6E1200550EFADF000EF8DF35
:10125000FF0EF6DF92EF09F0F86AD09E078E176A4C
:10126000B886870EAF6E130EB06EA60EAC6E900EE3
:10127000AB6EC150C00B0F09C16E070EB46E186A79
:10128000196A1E6A040E1F6E0C0E206E8C98C150D7
:10129000C00B0F09C16EC2909698C69A010EC66E19
:1012A000000EC76ED190800ED56EB16A070EB46E77
:1012B0009250926E270E006E002EFED700D0B450D2
:1012C000A19CB56A780E0509CA6EF90ECB6E8B9497
:1012D0000C0EBD6EB76AB66A8A96BA6E81D6C00E1B
:1012E000F212B50ECD6EBFD6ADDEC4D6C9D6015250
:1012F0001EE0010E01012B6F0001C6D6015216E05F
:10130000010E01012B6F2D6B2A0E2C6F2F6B400EDF
:101310002E6F000171D72A506E0802E18C8801D02F
:101320008C9892D72A508CDF2A508ADFDFD7DED7FD
:021330000300B8
:020000040030CA
:0E00000024CE2E1E0006A1000FC00FE00F4000
:00000001FF
;PIC18F4550
;CRC=5D77  CREATED="13-Tem-16 16:05"
